{
  "_format": "hh-sol-artifact-1",
  "contractName": "Verify",
  "sourceName": "contracts/Verify.sol",
  "abi": [
    {
      "anonymous": false,
      "inputs": [
        {
          "indexed": true,
          "internalType": "address",
          "name": "manufacturer",
          "type": "address"
        },
        {
          "indexed": true,
          "internalType": "uint32",
          "name": "manufacturerId",
          "type": "uint32"
        },
        {
          "indexed": true,
          "internalType": "uint32",
          "name": "drugId",
          "type": "uint32"
        },
        {
          "indexed": false,
          "internalType": "string",
          "name": "drugName",
          "type": "string"
        },
        {
          "indexed": false,
          "internalType": "bytes32",
          "name": "transactionHash",
          "type": "bytes32"
        }
      ],
      "name": "DrugRegistered",
      "type": "event"
    },
    {
      "anonymous": false,
      "inputs": [
        {
          "indexed": true,
          "internalType": "address",
          "name": "manufacturer",
          "type": "address"
        },
        {
          "indexed": true,
          "internalType": "uint32",
          "name": "manufacturerId",
          "type": "uint32"
        }
      ],
      "name": "ManufacturerRegistered",
      "type": "event"
    },
    {
      "inputs": [
        {
          "internalType": "bytes32",
          "name": "",
          "type": "bytes32"
        }
      ],
      "name": "drugManufacturer",
      "outputs": [
        {
          "internalType": "address",
          "name": "",
          "type": "address"
        }
      ],
      "stateMutability": "view",
      "type": "function"
    },
    {
      "inputs": [
        {
          "internalType": "bytes32",
          "name": "",
          "type": "bytes32"
        }
      ],
      "name": "drugs",
      "outputs": [
        {
          "internalType": "string",
          "name": "drugName",
          "type": "string"
        },
        {
          "internalType": "uint32",
          "name": "drugId",
          "type": "uint32"
        },
        {
          "internalType": "uint32",
          "name": "batchNumber",
          "type": "uint32"
        },
        {
          "internalType": "uint32",
          "name": "lotNumber",
          "type": "uint32"
        },
        {
          "internalType": "uint256",
          "name": "expiryDate",
          "type": "uint256"
        },
        {
          "internalType": "bool",
          "name": "isRegistered",
          "type": "bool"
        }
      ],
      "stateMutability": "view",
      "type": "function"
    },
    {
      "inputs": [
        {
          "internalType": "bytes32",
          "name": "_transactionHash",
          "type": "bytes32"
        }
      ],
      "name": "getDrugInformation",
      "outputs": [
        {
          "internalType": "string",
          "name": "",
          "type": "string"
        },
        {
          "internalType": "uint32",
          "name": "",
          "type": "uint32"
        },
        {
          "internalType": "uint32",
          "name": "",
          "type": "uint32"
        },
        {
          "internalType": "uint32",
          "name": "",
          "type": "uint32"
        },
        {
          "internalType": "uint256",
          "name": "",
          "type": "uint256"
        },
        {
          "internalType": "string",
          "name": "",
          "type": "string"
        },
        {
          "internalType": "uint32",
          "name": "",
          "type": "uint32"
        }
      ],
      "stateMutability": "view",
      "type": "function"
    },
    {
      "inputs": [],
      "name": "lastTransactionHash",
      "outputs": [
        {
          "internalType": "bytes32",
          "name": "",
          "type": "bytes32"
        }
      ],
      "stateMutability": "view",
      "type": "function"
    },
    {
      "inputs": [
        {
          "internalType": "uint32",
          "name": "",
          "type": "uint32"
        },
        {
          "internalType": "uint32",
          "name": "",
          "type": "uint32"
        }
      ],
      "name": "manufacturerDrugs",
      "outputs": [
        {
          "internalType": "bool",
          "name": "",
          "type": "bool"
        }
      ],
      "stateMutability": "view",
      "type": "function"
    },
    {
      "inputs": [
        {
          "internalType": "address",
          "name": "",
          "type": "address"
        }
      ],
      "name": "manufacturers",
      "outputs": [
        {
          "internalType": "string",
          "name": "manufactureName",
          "type": "string"
        },
        {
          "internalType": "uint32",
          "name": "manufacturerId",
          "type": "uint32"
        },
        {
          "internalType": "bool",
          "name": "isRegistered",
          "type": "bool"
        }
      ],
      "stateMutability": "view",
      "type": "function"
    },
    {
      "inputs": [
        {
          "internalType": "uint32",
          "name": "_manufacturerId",
          "type": "uint32"
        },
        {
          "internalType": "string",
          "name": "_manufacturerName",
          "type": "string"
        }
      ],
      "name": "registerManufacturer",
      "outputs": [],
      "stateMutability": "nonpayable",
      "type": "function"
    },
    {
      "inputs": [
        {
          "internalType": "uint32",
          "name": "_drugId",
          "type": "uint32"
        },
        {
          "internalType": "string",
          "name": "_drugName",
          "type": "string"
        },
        {
          "internalType": "uint32",
          "name": "_batchNumber",
          "type": "uint32"
        },
        {
          "internalType": "uint32",
          "name": "_lotNumber",
          "type": "uint32"
        },
        {
          "internalType": "uint256",
          "name": "_expiryDate",
          "type": "uint256"
        }
      ],
      "name": "registerNewDrug",
      "outputs": [
        {
          "internalType": "bytes32",
          "name": "",
          "type": "bytes32"
        }
      ],
      "stateMutability": "nonpayable",
      "type": "function"
    },
    {
      "inputs": [],
      "name": "totalManufacturers",
      "outputs": [
        {
          "internalType": "uint256",
          "name": "",
          "type": "uint256"
        }
      ],
      "stateMutability": "view",
      "type": "function"
    }
  ],
  "bytecode": "0x608060405234801561001057600080fd5b50611958806100206000396000f3fe608060405234801561001057600080fd5b50600436106100935760003560e01c8063640ed50711610066578063640ed507146101495780636b5eb09c14610167578063920e098814610199578063f9227777146101c9578063fe01371d146101ff57610093565b80632ef09ea314610098578063482684db146100c85780635f3f5098146100fd57806363c6a6b614610119575b600080fd5b6100b260048036038101906100ad9190611019565b61021d565b6040516100bf9190611332565b60405180910390f35b6100e260048036038101906100dd9190610f98565b61069f565b6040516100f4969594939291906113bd565b60405180910390f35b61011760048036038101906101129190610fc1565b6107a0565b005b610133600480360381019061012e9190610f98565b6109a5565b60405161014091906112fc565b60405180910390f35b6101516109d8565b60405161015e9190611542565b60405180910390f35b610181600480360381019061017c9190610f6f565b6109de565b6040516101909392919061137f565b60405180910390f35b6101b360048036038101906101ae91906110ab565b610aad565b6040516101c09190611317565b60405180910390f35b6101e360048036038101906101de9190610f98565b610adc565b6040516101f69796959493929190611425565b60405180910390f35b610207610e28565b6040516102149190611332565b60405180910390f35b6000600160003373ffffffffffffffffffffffffffffffffffffffff1673ffffffffffffffffffffffffffffffffffffffff16815260200190815260200160002060010160049054906101000a900460ff166102ae576040517f08c379a00000000000000000000000000000000000000000000000000000000081526004016102a5906114e2565b60405180910390fd5b6000600160003373ffffffffffffffffffffffffffffffffffffffff1673ffffffffffffffffffffffffffffffffffffffff16815260200190815260200160002060010160009054906101000a900463ffffffff169050600460008263ffffffff1663ffffffff16815260200190815260200160002060008963ffffffff1663ffffffff16815260200190815260200160002060009054906101000a900460ff161561038f576040517f08c379a0000000000000000000000000000000000000000000000000000000008152600401610386906114c2565b60405180910390fd5b600033828a8888886040516020016103ac9695949392919061128c565b6040516020818303038152906040528051906020012090506002600082815260200190815260200160002060030160009054906101000a900460ff1615610428576040517f08c379a000000000000000000000000000000000000000000000000000000000815260040161041f906114a2565b60405180910390fd5b6040518060c0016040528089898080601f016020809104026020016040519081016040528093929190818152602001838380828437600081840152601f19601f8201169050808301925050505050505081526020018a63ffffffff1681526020018763ffffffff1681526020018663ffffffff168152602001858152602001600115158152506002600083815260200190815260200160002060008201518160000190805190602001906104dd929190610e2e565b5060208201518160010160006101000a81548163ffffffff021916908363ffffffff16021790555060408201518160010160046101000a81548163ffffffff021916908363ffffffff16021790555060608201518160010160086101000a81548163ffffffff021916908363ffffffff1602179055506080820151816002015560a08201518160030160006101000a81548160ff021916908315150217905550905050336003600083815260200190815260200160002060006101000a81548173ffffffffffffffffffffffffffffffffffffffff021916908373ffffffffffffffffffffffffffffffffffffffff1602179055506001600460008463ffffffff1663ffffffff16815260200190815260200160002060008b63ffffffff1663ffffffff16815260200190815260200160002060006101000a81548160ff021916908315150217905550806000819055508863ffffffff168263ffffffff163373ffffffffffffffffffffffffffffffffffffffff167f74811ea5700df0cdb5785d6139cf76d49c83c3210c73dde2e0578a4dc72fe53e8b8b866040516106869392919061134d565b60405180910390a4600054925050509695505050505050565b60026020528060005260406000206000915090508060000180546106c29061161d565b80601f01602080910402602001604051908101604052809291908181526020018280546106ee9061161d565b801561073b5780601f106107105761010080835404028352916020019161073b565b820191906000526020600020905b81548152906001019060200180831161071e57829003601f168201915b5050505050908060010160009054906101000a900463ffffffff16908060010160049054906101000a900463ffffffff16908060010160089054906101000a900463ffffffff16908060020154908060030160009054906101000a900460ff16905086565b600160003373ffffffffffffffffffffffffffffffffffffffff1673ffffffffffffffffffffffffffffffffffffffff16815260200190815260200160002060010160049054906101000a900460ff1615610830576040517f08c379a000000000000000000000000000000000000000000000000000000000815260040161082790611502565b60405180910390fd5b604051806060016040528083838080601f016020809104026020016040519081016040528093929190818152602001838380828437600081840152601f19601f8201169050808301925050505050505081526020018463ffffffff16815260200160011515815250600160003373ffffffffffffffffffffffffffffffffffffffff1673ffffffffffffffffffffffffffffffffffffffff16815260200190815260200160002060008201518160000190805190602001906108f3929190610e2e565b5060208201518160010160006101000a81548163ffffffff021916908363ffffffff16021790555060408201518160010160046101000a81548160ff021916908315150217905550905050600560008154809291906109519061164f565b91905055508263ffffffff163373ffffffffffffffffffffffffffffffffffffffff167f4b4df689a5f624a347a651fc107b9309bfc9b06d2eebbef4a799442cd96204fd60405160405180910390a3505050565b60036020528060005260406000206000915054906101000a900473ffffffffffffffffffffffffffffffffffffffff1681565b60055481565b6001602052806000526040600020600091509050806000018054610a019061161d565b80601f0160208091040260200160405190810160405280929190818152602001828054610a2d9061161d565b8015610a7a5780601f10610a4f57610100808354040283529160200191610a7a565b820191906000526020600020905b815481529060010190602001808311610a5d57829003601f168201915b5050505050908060010160009054906101000a900463ffffffff16908060010160049054906101000a900460ff16905083565b60046020528160005260406000206020528060005260406000206000915091509054906101000a900460ff1681565b6060600080600080606060006002600089815260200190815260200160002060030160009054906101000a900460ff16610b4b576040517f08c379a0000000000000000000000000000000000000000000000000000000008152600401610b4290611522565b60405180910390fd5b6000600260008a81526020019081526020016000206040518060c0016040529081600082018054610b7b9061161d565b80601f0160208091040260200160405190810160405280929190818152602001828054610ba79061161d565b8015610bf45780601f10610bc957610100808354040283529160200191610bf4565b820191906000526020600020905b815481529060010190602001808311610bd757829003601f168201915b505050505081526020016001820160009054906101000a900463ffffffff1663ffffffff1663ffffffff1681526020016001820160049054906101000a900463ffffffff1663ffffffff1663ffffffff1681526020016001820160089054906101000a900463ffffffff1663ffffffff1663ffffffff168152602001600282015481526020016003820160009054906101000a900460ff1615151515815250509050600060016000600360008d815260200190815260200160002060009054906101000a900473ffffffffffffffffffffffffffffffffffffffff1673ffffffffffffffffffffffffffffffffffffffff1673ffffffffffffffffffffffffffffffffffffffff168152602001908152602001600020604051806060016040529081600082018054610d259061161d565b80601f0160208091040260200160405190810160405280929190818152602001828054610d519061161d565b8015610d9e5780601f10610d7357610100808354040283529160200191610d9e565b820191906000526020600020905b815481529060010190602001808311610d8157829003601f168201915b505050505081526020016001820160009054906101000a900463ffffffff1663ffffffff1663ffffffff1681526020016001820160049054906101000a900460ff1615151515815250509050816000015182602001518360400151846060015185608001518560000151866020015198509850985098509850985098505050919395979092949650565b60005481565b828054610e3a9061161d565b90600052602060002090601f016020900481019282610e5c5760008555610ea3565b82601f10610e7557805160ff1916838001178555610ea3565b82800160010185558215610ea3579182015b82811115610ea2578251825591602001919060010190610e87565b5b509050610eb09190610eb4565b5090565b5b80821115610ecd576000816000905550600101610eb5565b5090565b600081359050610ee0816118c6565b92915050565b600081359050610ef5816118dd565b92915050565b60008083601f840112610f0d57600080fd5b8235905067ffffffffffffffff811115610f2657600080fd5b602083019150836001820283011115610f3e57600080fd5b9250929050565b600081359050610f54816118f4565b92915050565b600081359050610f698161190b565b92915050565b600060208284031215610f8157600080fd5b6000610f8f84828501610ed1565b91505092915050565b600060208284031215610faa57600080fd5b6000610fb884828501610ee6565b91505092915050565b600080600060408486031215610fd657600080fd5b6000610fe486828701610f5a565b935050602084013567ffffffffffffffff81111561100157600080fd5b61100d86828701610efb565b92509250509250925092565b60008060008060008060a0878903121561103257600080fd5b600061104089828a01610f5a565b965050602087013567ffffffffffffffff81111561105d57600080fd5b61106989828a01610efb565b9550955050604061107c89828a01610f5a565b935050606061108d89828a01610f5a565b925050608061109e89828a01610f45565b9150509295509295509295565b600080604083850312156110be57600080fd5b60006110cc85828601610f5a565b92505060206110dd85828601610f5a565b9150509250929050565b6110f081611579565b82525050565b61110761110282611579565b611698565b82525050565b6111168161158b565b82525050565b61112581611597565b82525050565b60006111378385611568565b93506111448385846115db565b61114d83611736565b840190509392505050565b60006111638261155d565b61116d8185611568565b935061117d8185602086016115ea565b61118681611736565b840191505092915050565b600061119e603583611568565b91506111a982611761565b604082019050919050565b60006111c1602d83611568565b91506111cc826117b0565b604082019050919050565b60006111e4601e83611568565b91506111ef826117ff565b602082019050919050565b6000611207602283611568565b915061121282611828565b604082019050919050565b600061122a603483611568565b915061123582611877565b604082019050919050565b611249816115c1565b82525050565b61126061125b826115c1565b6116bc565b82525050565b61126f816115cb565b82525050565b611286611281826115cb565b6116c6565b82525050565b600061129882896110f6565b6014820191506112a88288611275565b6004820191506112b88287611275565b6004820191506112c88286611275565b6004820191506112d88285611275565b6004820191506112e8828461124f565b602082019150819050979650505050505050565b600060208201905061131160008301846110e7565b92915050565b600060208201905061132c600083018461110d565b92915050565b6000602082019050611347600083018461111c565b92915050565b6000604082019050818103600083015261136881858761112b565b9050611377602083018461111c565b949350505050565b600060608201905081810360008301526113998186611158565b90506113a86020830185611266565b6113b5604083018461110d565b949350505050565b600060c08201905081810360008301526113d78189611158565b90506113e66020830188611266565b6113f36040830187611266565b6114006060830186611266565b61140d6080830185611240565b61141a60a083018461110d565b979650505050505050565b600060e082019050818103600083015261143f818a611158565b905061144e6020830189611266565b61145b6040830188611266565b6114686060830187611266565b6114756080830186611240565b81810360a08301526114878185611158565b905061149660c0830184611266565b98975050505050505050565b600060208201905081810360008301526114bb81611191565b9050919050565b600060208201905081810360008301526114db816111b4565b9050919050565b600060208201905081810360008301526114fb816111d7565b9050919050565b6000602082019050818103600083015261151b816111fa565b9050919050565b6000602082019050818103600083015261153b8161121d565b9050919050565b60006020820190506115576000830184611240565b92915050565b600081519050919050565b600082825260208201905092915050565b6000611584826115a1565b9050919050565b60008115159050919050565b6000819050919050565b600073ffffffffffffffffffffffffffffffffffffffff82169050919050565b6000819050919050565b600063ffffffff82169050919050565b82818337600083830152505050565b60005b838110156116085780820151818401526020810190506115ed565b83811115611617576000848401525b50505050565b6000600282049050600182168061163557607f821691505b6020821081141561164957611648611707565b5b50919050565b600061165a826115c1565b91507fffffffffffffffffffffffffffffffffffffffffffffffffffffffffffffffff82141561168d5761168c6116d8565b5b600182019050919050565b60006116a3826116aa565b9050919050565b60006116b582611754565b9050919050565b6000819050919050565b60006116d182611747565b9050919050565b7f4e487b7100000000000000000000000000000000000000000000000000000000600052601160045260246000fd5b7f4e487b7100000000000000000000000000000000000000000000000000000000600052602260045260246000fd5b6000601f19601f8301169050919050565b60008160e01b9050919050565b60008160601b9050919050565b7f4472756720697320616c7265616479207265676973746572656420776974682060008201527f74686973207472616e73616374696f6e20686173680000000000000000000000602082015250565b7f4472756720616c7265616479207265676973746572656420666f72207468697360008201527f206d616e75666163747572657200000000000000000000000000000000000000602082015250565b7f4d616e756661637475726572206973206e6f7420726567697374657265640000600082015250565b7f4d616e75666163747572657220697320616c726561647920726567697374657260008201527f6564000000000000000000000000000000000000000000000000000000000000602082015250565b7f4472756720696e666f726d6174696f6e206e6f7420666f756e6420666f72207460008201527f686973207472616e73616374696f6e2068617368000000000000000000000000602082015250565b6118cf81611579565b81146118da57600080fd5b50565b6118e681611597565b81146118f157600080fd5b50565b6118fd816115c1565b811461190857600080fd5b50565b611914816115cb565b811461191f57600080fd5b5056fea26469706673582212204f4f4536d859dc1b13a0e35845077c960f95fcfeee2e2cde54f1a7f54afa4ba664736f6c63430008040033",
  "linkReferences": {},
  "deployedLinkReferences": {}
}