{
  "_format": "hh-sol-artifact-1",
  "contractName": "Verify",
  "sourceName": "contracts/Verify.sol",
  "abi": [
    {
      "anonymous": false,
      "inputs": [
        {
          "indexed": true,
          "internalType": "address",
          "name": "manufacturer",
          "type": "address"
        },
        {
          "indexed": true,
          "internalType": "uint32",
          "name": "manufacturerId",
          "type": "uint32"
        },
        {
          "indexed": true,
          "internalType": "uint32",
          "name": "drugId",
          "type": "uint32"
        },
        {
          "indexed": false,
          "internalType": "string",
          "name": "drugName",
          "type": "string"
        },
        {
          "indexed": false,
          "internalType": "uint256",
          "name": "transactionId",
          "type": "uint256"
        }
      ],
      "name": "DrugRegistered",
      "type": "event"
    },
    {
      "anonymous": false,
      "inputs": [
        {
          "indexed": true,
          "internalType": "address",
          "name": "manufacturer",
          "type": "address"
        },
        {
          "indexed": true,
          "internalType": "uint32",
          "name": "manufacturerId",
          "type": "uint32"
        }
      ],
      "name": "ManufacturerRegistered",
      "type": "event"
    },
    {
      "inputs": [
        {
          "internalType": "uint32",
          "name": "",
          "type": "uint32"
        },
        {
          "internalType": "uint32",
          "name": "",
          "type": "uint32"
        }
      ],
      "name": "drugInformationByManufacturer",
      "outputs": [
        {
          "internalType": "string",
          "name": "drugName",
          "type": "string"
        },
        {
          "internalType": "uint32",
          "name": "drugId",
          "type": "uint32"
        },
        {
          "internalType": "uint32",
          "name": "batchNumber",
          "type": "uint32"
        },
        {
          "internalType": "uint32",
          "name": "lotNumber",
          "type": "uint32"
        },
        {
          "internalType": "uint256",
          "name": "expiryDate",
          "type": "uint256"
        },
        {
          "internalType": "bool",
          "name": "isRegistered",
          "type": "bool"
        }
      ],
      "stateMutability": "view",
      "type": "function"
    },
    {
      "inputs": [
        {
          "internalType": "bytes32",
          "name": "_transactionHash",
          "type": "bytes32"
        }
      ],
      "name": "getDrugInformationByTransactionHash",
      "outputs": [
        {
          "internalType": "uint256",
          "name": "expiryDate",
          "type": "uint256"
        },
        {
          "internalType": "uint32",
          "name": "batchNumber",
          "type": "uint32"
        },
        {
          "internalType": "string",
          "name": "drugName",
          "type": "string"
        },
        {
          "internalType": "uint32",
          "name": "drugId",
          "type": "uint32"
        }
      ],
      "stateMutability": "view",
      "type": "function"
    },
    {
      "inputs": [
        {
          "internalType": "uint32",
          "name": "",
          "type": "uint32"
        }
      ],
      "name": "manufacturerIdExists",
      "outputs": [
        {
          "internalType": "bool",
          "name": "",
          "type": "bool"
        }
      ],
      "stateMutability": "view",
      "type": "function"
    },
    {
      "inputs": [
        {
          "internalType": "address",
          "name": "",
          "type": "address"
        }
      ],
      "name": "manufacturers",
      "outputs": [
        {
          "internalType": "string",
          "name": "manufactureName",
          "type": "string"
        },
        {
          "internalType": "uint32",
          "name": "manufacturerId",
          "type": "uint32"
        },
        {
          "internalType": "bool",
          "name": "isRegistered",
          "type": "bool"
        }
      ],
      "stateMutability": "view",
      "type": "function"
    },
    {
      "inputs": [
        {
          "internalType": "uint32",
          "name": "_manufacturerId",
          "type": "uint32"
        },
        {
          "internalType": "uint32",
          "name": "_drugId",
          "type": "uint32"
        },
        {
          "internalType": "string",
          "name": "_drugName",
          "type": "string"
        },
        {
          "internalType": "uint32",
          "name": "_batchNumber",
          "type": "uint32"
        },
        {
          "internalType": "uint32",
          "name": "_lotNumber",
          "type": "uint32"
        },
        {
          "internalType": "uint256",
          "name": "_expiryDate",
          "type": "uint256"
        }
      ],
      "name": "registerDrugInformation",
      "outputs": [],
      "stateMutability": "nonpayable",
      "type": "function"
    },
    {
      "inputs": [
        {
          "internalType": "uint32",
          "name": "_manufacturerId",
          "type": "uint32"
        },
        {
          "internalType": "string",
          "name": "_manufacturerName",
          "type": "string"
        }
      ],
      "name": "registerManufacturer",
      "outputs": [],
      "stateMutability": "nonpayable",
      "type": "function"
    },
    {
      "inputs": [],
      "name": "totalManufacturers",
      "outputs": [
        {
          "internalType": "uint256",
          "name": "",
          "type": "uint256"
        }
      ],
      "stateMutability": "view",
      "type": "function"
    },
    {
      "inputs": [
        {
          "internalType": "bytes32",
          "name": "",
          "type": "bytes32"
        }
      ],
      "name": "transactionIdByHash",
      "outputs": [
        {
          "internalType": "uint256",
          "name": "",
          "type": "uint256"
        }
      ],
      "stateMutability": "view",
      "type": "function"
    }
  ],
  "bytecode": "0x608060405234801561001057600080fd5b50611755806100206000396000f3fe608060405234801561001057600080fd5b50600436106100885760003560e01c8063640ed5071161005b578063640ed5071461012a5780636b5eb09c14610148578063b862c7c11461017a578063d4e27da8146101aa57610088565b806314fe06db1461008d5780631db44771146100c257806344378fa8146100de5780635f3f50981461010e575b600080fd5b6100a760048036038101906100a29190610ea7565b6101dd565b6040516100b9969594939291906111e0565b60405180910390f35b6100dc60048036038101906100d79190610ee3565b6102eb565b005b6100f860048036038101906100f39190610e26565b61068b565b6040516101059190611155565b60405180910390f35b61012860048036038101906101239190610e4f565b6106ab565b005b610132610952565b60405161013f9190611328565b60405180910390f35b610162600480360381019061015d9190610dd4565b610958565b604051610171939291906111a2565b60405180910390f35b610194600480360381019061018f9190610dfd565b610a27565b6040516101a19190611328565b60405180910390f35b6101c460048036038101906101bf9190610dfd565b610a3f565b6040516101d49493929190611343565b60405180910390f35b60036020528160005260406000206020528060005260406000206000915091505080600001805461020d9061144f565b80601f01602080910402602001604051908101604052809291908181526020018280546102399061144f565b80156102865780601f1061025b57610100808354040283529160200191610286565b820191906000526020600020905b81548152906001019060200180831161026957829003601f168201915b5050505050908060010160009054906101000a900463ffffffff16908060010160049054906101000a900463ffffffff16908060010160089054906101000a900463ffffffff16908060020154908060030160009054906101000a900460ff16905086565b6000803373ffffffffffffffffffffffffffffffffffffffff1673ffffffffffffffffffffffffffffffffffffffff16815260200190815260200160002060010160049054906101000a900460ff16610379576040517f08c379a0000000000000000000000000000000000000000000000000000000008152600401610370906112c8565b60405180910390fd5b600360008863ffffffff1663ffffffff16815260200190815260200160002060008763ffffffff1663ffffffff16815260200190815260200160002060030160009054906101000a900460ff1615610406576040517f08c379a00000000000000000000000000000000000000000000000000000000081526004016103fd90611248565b60405180910390fd5b428111610448576040517f08c379a000000000000000000000000000000000000000000000000000000000815260040161043f906112a8565b60405180910390fd5b6000878760405160200161045d929190611129565b6040516020818303038152906040528051906020012090506040518060c0016040528087878080601f016020809104026020016040519081016040528093929190818152602001838380828437600081840152601f19601f8201169050808301925050505050505081526020018863ffffffff1681526020018563ffffffff1681526020018463ffffffff16815260200183815260200160011515815250600360008a63ffffffff1663ffffffff16815260200190815260200160002060008963ffffffff1663ffffffff1681526020019081526020016000206000820151816000019080519060200190610553929190610c93565b5060208201518160010160006101000a81548163ffffffff021916908363ffffffff16021790555060408201518160010160046101000a81548163ffffffff021916908363ffffffff16021790555060608201518160010160086101000a81548163ffffffff021916908363ffffffff1602179055506080820151816002015560a08201518160030160006101000a81548160ff0219169083151502179055509050504360046000838152602001908152602001600020819055508663ffffffff168863ffffffff163373ffffffffffffffffffffffffffffffffffffffff167f4ca5936a8cec3a559153437bdbd6ff54d69e5731c252cd34bebcac6670a0bd218989600460008881526020019081526020016000205460405161067993929190611170565b60405180910390a45050505050505050565b60016020528060005260406000206000915054906101000a900460ff1681565b6000803373ffffffffffffffffffffffffffffffffffffffff1673ffffffffffffffffffffffffffffffffffffffff16815260200190815260200160002060010160049054906101000a900460ff161561073a576040517f08c379a0000000000000000000000000000000000000000000000000000000008152600401610731906112e8565b60405180910390fd5b600160008463ffffffff1663ffffffff16815260200190815260200160002060009054906101000a900460ff16156107a7576040517f08c379a000000000000000000000000000000000000000000000000000000000815260040161079e90611308565b60405180910390fd5b604051806060016040528083838080601f016020809104026020016040519081016040528093929190818152602001838380828437600081840152601f19601f8201169050808301925050505050505081526020018463ffffffff168152602001600115158152506000803373ffffffffffffffffffffffffffffffffffffffff1673ffffffffffffffffffffffffffffffffffffffff1681526020019081526020016000206000820151816000019080519060200190610869929190610c93565b5060208201518160010160006101000a81548163ffffffff021916908363ffffffff16021790555060408201518160010160046101000a81548160ff02191690831515021790555090505060018060008563ffffffff1663ffffffff16815260200190815260200160002060006101000a81548160ff021916908315150217905550600260008154809291906108fe90611481565b91905055508263ffffffff163373ffffffffffffffffffffffffffffffffffffffff167f4b4df689a5f624a347a651fc107b9309bfc9b06d2eebbef4a799442cd96204fd60405160405180910390a3505050565b60025481565b600060205280600052604060002060009150905080600001805461097b9061144f565b80601f01602080910402602001604051908101604052809291908181526020018280546109a79061144f565b80156109f45780601f106109c9576101008083540402835291602001916109f4565b820191906000526020600020905b8154815290600101906020018083116109d757829003601f168201915b5050505050908060010160009054906101000a900463ffffffff16908060010160049054906101000a900460ff16905083565b60046020528060005260406000206000915090505481565b60008060606000806004600087815260200190815260200160002054905060008111610aa0576040517f08c379a0000000000000000000000000000000000000000000000000000000008152600401610a9790611288565b60405180910390fd5b600060808760001c901c905060008760001c90506000600360008463ffffffff1663ffffffff16815260200190815260200160002060008363ffffffff1663ffffffff1681526020019081526020016000206040518060c0016040529081600082018054610b0d9061144f565b80601f0160208091040260200160405190810160405280929190818152602001828054610b399061144f565b8015610b865780601f10610b5b57610100808354040283529160200191610b86565b820191906000526020600020905b815481529060010190602001808311610b6957829003601f168201915b505050505081526020016001820160009054906101000a900463ffffffff1663ffffffff1663ffffffff1681526020016001820160049054906101000a900463ffffffff1663ffffffff1663ffffffff1681526020016001820160089054906101000a900463ffffffff1663ffffffff1663ffffffff168152602001600282015481526020016003820160009054906101000a900460ff16151515158152505090508060a00151610c6c576040517f08c379a0000000000000000000000000000000000000000000000000000000008152600401610c6390611268565b60405180910390fd5b80608001519750806040015196508060000151955080602001519450505050509193509193565b828054610c9f9061144f565b90600052602060002090601f016020900481019282610cc15760008555610d08565b82601f10610cda57805160ff1916838001178555610d08565b82800160010185558215610d08579182015b82811115610d07578251825591602001919060010190610cec565b5b509050610d159190610d19565b5090565b5b80821115610d32576000816000905550600101610d1a565b5090565b600081359050610d45816116c3565b92915050565b600081359050610d5a816116da565b92915050565b60008083601f840112610d7257600080fd5b8235905067ffffffffffffffff811115610d8b57600080fd5b602083019150836001820283011115610da357600080fd5b9250929050565b600081359050610db9816116f1565b92915050565b600081359050610dce81611708565b92915050565b600060208284031215610de657600080fd5b6000610df484828501610d36565b91505092915050565b600060208284031215610e0f57600080fd5b6000610e1d84828501610d4b565b91505092915050565b600060208284031215610e3857600080fd5b6000610e4684828501610dbf565b91505092915050565b600080600060408486031215610e6457600080fd5b6000610e7286828701610dbf565b935050602084013567ffffffffffffffff811115610e8f57600080fd5b610e9b86828701610d60565b92509250509250925092565b60008060408385031215610eba57600080fd5b6000610ec885828601610dbf565b9250506020610ed985828601610dbf565b9150509250929050565b600080600080600080600060c0888a031215610efe57600080fd5b6000610f0c8a828b01610dbf565b9750506020610f1d8a828b01610dbf565b965050604088013567ffffffffffffffff811115610f3a57600080fd5b610f468a828b01610d60565b95509550506060610f598a828b01610dbf565b9350506080610f6a8a828b01610dbf565b92505060a0610f7b8a828b01610daa565b91505092959891949750929550565b610f93816113bd565b82525050565b6000610fa5838561139a565b9350610fb283858461140d565b610fbb8361153a565b840190509392505050565b6000610fd18261138f565b610fdb818561139a565b9350610feb81856020860161141c565b610ff48161153a565b840191505092915050565b600061100c601a8361139a565b915061101782611558565b602082019050919050565b600061102f601a8361139a565b915061103a82611581565b602082019050919050565b6000611052601a8361139a565b915061105d826115aa565b602082019050919050565b600061107560218361139a565b9150611080826115d3565b604082019050919050565b6000611098601e8361139a565b91506110a382611622565b602082019050919050565b60006110bb60228361139a565b91506110c68261164b565b604082019050919050565b60006110de601e8361139a565b91506110e98261169a565b602082019050919050565b6110fd816113f3565b82525050565b61110c816113fd565b82525050565b61112361111e826113fd565b6114ca565b82525050565b60006111358285611112565b6004820191506111458284611112565b6004820191508190509392505050565b600060208201905061116a6000830184610f8a565b92915050565b6000604082019050818103600083015261118b818587610f99565b905061119a60208301846110f4565b949350505050565b600060608201905081810360008301526111bc8186610fc6565b90506111cb6020830185611103565b6111d86040830184610f8a565b949350505050565b600060c08201905081810360008301526111fa8189610fc6565b90506112096020830188611103565b6112166040830187611103565b6112236060830186611103565b61123060808301856110f4565b61123d60a0830184610f8a565b979650505050505050565b6000602082019050818103600083015261126181610fff565b9050919050565b6000602082019050818103600083015261128181611022565b9050919050565b600060208201905081810360008301526112a181611045565b9050919050565b600060208201905081810360008301526112c181611068565b9050919050565b600060208201905081810360008301526112e18161108b565b9050919050565b60006020820190508181036000830152611301816110ae565b9050919050565b60006020820190508181036000830152611321816110d1565b9050919050565b600060208201905061133d60008301846110f4565b92915050565b600060808201905061135860008301876110f4565b6113656020830186611103565b81810360408301526113778185610fc6565b90506113866060830184611103565b95945050505050565b600081519050919050565b600082825260208201905092915050565b60006113b6826113d3565b9050919050565b60008115159050919050565b6000819050919050565b600073ffffffffffffffffffffffffffffffffffffffff82169050919050565b6000819050919050565b600063ffffffff82169050919050565b82818337600083830152505050565b60005b8381101561143a57808201518184015260208101905061141f565b83811115611449576000848401525b50505050565b6000600282049050600182168061146757607f821691505b6020821081141561147b5761147a61150b565b5b50919050565b600061148c826113f3565b91507fffffffffffffffffffffffffffffffffffffffffffffffffffffffffffffffff8214156114bf576114be6114dc565b5b600182019050919050565b60006114d58261154b565b9050919050565b7f4e487b7100000000000000000000000000000000000000000000000000000000600052601160045260246000fd5b7f4e487b7100000000000000000000000000000000000000000000000000000000600052602260045260246000fd5b6000601f19601f8301169050919050565b60008160e01b9050919050565b7f4472756720697320616c72656164792072656769737465726564000000000000600082015250565b7f4472756720696e666f726d6174696f6e206e6f7420666f756e64000000000000600082015250565b7f5472616e73616374696f6e2068617368206e6f7420666f756e64000000000000600082015250565b7f4578706972792064617465206d75737420626520696e2074686520667574757260008201527f6500000000000000000000000000000000000000000000000000000000000000602082015250565b7f4d616e756661637475726572206973206e6f7420726567697374657265640000600082015250565b7f4d616e75666163747572657220697320616c726561647920726567697374657260008201527f6564000000000000000000000000000000000000000000000000000000000000602082015250565b7f4d616e75666163747572657220494420616c726561647920696e207573650000600082015250565b6116cc816113ab565b81146116d757600080fd5b50565b6116e3816113c9565b81146116ee57600080fd5b50565b6116fa816113f3565b811461170557600080fd5b50565b611711816113fd565b811461171c57600080fd5b5056fea2646970667358221220f6300ba43da50a0e6a0ff4a719eb23f0dd65cee5ea5a7b94dea85ca928afcb3864736f6c63430008040033",
  "linkReferences": {},
  "deployedLinkReferences": {}
}